:020000020000FC
:0200000002C13B
:040038000C943400F0
:04001C000C947A00C6
:040048000C94A10073
:100068000F931F939FB69460AA9419F401E1A02EF0
:100078008460BA9419F408E1B02E8860CA9419F41F
:100088000AE7C02E8260072D88941FEF111F0A957A
:10009800E9F718B904E0602E09B10F6002950795D9
:1000A800302E80F080628F7B022D242C022519F0DF
:1000B80004E0802E07C0082D002321F08A9411F453
:1000C800522C80614394032D6A9449F77A9451F431
:1000D800442404E0702E85FF02C08F7D03C00FEF1B
:1000E800202E80649FBE1F910F9118950F931F9328
:1000F8009FB690FD1EC003B104FD0DC02C9A00915F
:100108000C01079500930C0110F02B9812C02B9A44
:1001180010C09D7FF4CF91FDFCCF00910B010A9593
:1001280000930B0111F02C9804C006E000930B011A
:1001380091609FBE1F910F9118959FB61F930F93C3
:10014800BF93AF93B1E0ADE000912D011127A00F4F
:10015800B11F1091C6001C9303950F3109F40027B5
:1001680000932D01AF91BF910F911F919FBE1895DC
:1001780008E305B900E308B90CEF0BB90FE304B9BC
:100188000FE007B905E005BD02E004BD00E407BDC6
:1001980000916E00026000936E0034D137D13AD1DD
:1001A80002E00093B10002E00093B00000E4009385
:1001B800B30000917000026000937000916006E047
:1001C80000930B01789408958F7E8F7D04E0702E44
:1001D80004E0802E0FEF502E202E00E0402E0895D0
:1001E800F89400E00093C50003E30093C40006E020
:1001F8000093C20008E90093C1007894089508E0CC
:100208000EBF0FEF0DBF0E945802B2DFDDDFE1D055
:10021800E7DFD9D1F6E0ECEDCCD1EE2428982A9886
:10022800299A8F778E7FDD242227D3D0F7D00AE052
:10023800101711F42DD1F1CF0BE0101709F031C0D0
:100248001E2D1F707FE0711721F41E2D107F12954F
:1002580005C01E2D79E9171709F46CC070E47117F1
:1002680008F4DBCF15D1CC27DD2707D1112319F0EE
:100278002B961A95E9F748D2102F107F70EF1717B1
:1002880009F4CCCF289AC6D081FFFECF2D981FD075
:100298002D9A22E0BFD081FFFECF8D7F2A95D9F716
:1002A800BDCF87FDC3CF80FD07C08160106F129559
:1002B8000D2D012BD02E06C08E7F0D2D007F012B1A
:1002C800D02E806800930001E02EE2D0AFCF2AE064
:1002D8009B7F43E092FFFECF9B7F4A95D9F714D2CC
:1002E800102F12951F700FE0101709F408950CD005
:1002F8000BD2102F21961F700FE0101709F40895E4
:1003080003D02A9561F70895103009F41AE00BD04C
:1003180079D082FFFECF04D075D082FFFECF08953A
:100328001FEF01D0089590FFFECF10930C0192604B
:100338009E7F089528982A9A29988F778E7FDD24A2
:10034800222747D06BD0AAD00AE0101711F4A6D004
:10035800F1CF0BE0101709F017C0B1E0A0E01C9135
:100368001C9179E9171709F458CF98D070E47117E0
:1003780008F4E0CFCC27DD2780D0112319F02B9685
:100388001A95E9F71DD0D6CF87FDDCCF80FD07C0D1
:100398008160106F12950D2D012BD02E05C08E7F18
:1003A8000D2D007F012BD02E0C93239520FD02C02C
:1003B800DD24119676E1271709F480686FD0C2CF43
:1003C800B1E0A1E02AE00D9195D121962A95D9F7BF
:1003D8000895B1E0A0E02BE00FEF0D932A95E9F71F
:1003E800B1E0A0E00895B0E0A0E0D1E0C3EC0FEFE9
:1003F8000D9311E0C11B1127D10BDD23C9F7CC23C5
:10040800B9F7089501E1A02E8B7F089508E1B02E79
:10041800877F08950AE7C02E8D7F089584FFFECF59
:100428008F7E0CD086FFFECF089584FD03C010E0B8
:10043800889408958F7E02D008940895F4E0E0E649
:100448000591051529F0319605910A3119F0F9CF72
:10045800149108951FEF0895000A0107020403018B
:100468000400050806050702080B09090A060B031C
:100478000C0C0D0D0E0E0F0F1A001F931F70712F0D
:100488002AE01F9112951F70129F102D170F0895C3
:100498002998BCDF83FFFECF299A08952A98B6DFF2
:1004A80083FFFECF2A9A0895F894A89504B70070A0
:1004B80004BF0091600008610093600000E00093B1
:1004C80060007894089521E2B1E0ADE000270D9333
:1004D8002A95E9F7089510E10027B0E0A0E00D9310
:1004E8001A95E9F708951F93129501D01F911F706F
:1004F80070E3170F1A3310F077E0170F0E94BB0252
:10050800089508953F937F93331B79E0111F7A95DF
:1005180021F4232F7F913F910895331F321B18F444
:10052800320F8894F3CF0894F1CF00912C011091E9
:100538002D01101799F0BF93AF93B1E0ADE0009192
:100548002C011127A00FB11F1C91AF91BF910395EA
:100558000F3109F4002700932C01089511270895FD
:1005680000912C0110912D011017D1F3E4CF0091C7
:10057800C00005FFFCCF1093C600089500D01F935C
:100588001DE00E94BB021AE00E94BB0204C00E9448
:10059800CD021F9310E20E94BB021F9108951F9382
:1005A8001CE2F9CF1F930E94FA020E94F5021F91E4
:1005B80008951F9315911A3111F41F910895103061
:1005C800C9F3D5DFF7CFFF93EF93F6E0E4EA0E9493
:1005D800DD02F6E0EEEA1DC0FF93EF93F6E0ECE9EA
:1005E80018C0FF93EF93F6E0E2EB13C0FF93EF938D
:1005F800F6E0E0EA0EC0FF93EF93F6E0E6EB09C001
:10060800FF93EF93F6E0ECEB04C0FF93EF93F6E073
:10061800E0ECCFDFEF91FF910895FF93EF93F6E0C1
:10062800E6ECF7CFFF93EF93F6E0EAECF2CFFF9317
:10063800EF93F6E0ECECEDCFFF93EF93F6E0E4ED0B
:10064800E8CFFF93EF93F6E0E8EDE3CF0E941103C4
:10065800FF91EF918894EE1FFF1F15910E9485026C
:100668000E94160315910E9485020E941B0388941C
:10067800F795E795EF93FF9308950E9411031D2FB7
:100688000E9485020E9416031C2F0E9485020E9468
:100698001B0308951B5B421A1B5B441A1B5B481A19
:1006A8001B5B304A1A001B5B4A1A1B5B4B1A1B5B0D
:1006B800316D1A001B5B6D1A1B5B376D1A001B5BD3
:1006C8001A003B1A481A1B5B314D1A001B371A00D7
:1006D8001B381A003D3D3D3C3C2044544D462041CA
:1006E80075746F6469616C6572203E3E3D3D3D0DD9
:1006F8000A0A1A00F999FECFD2BDC1BD00BDF8940F
:10070800FA9AF99A78940895F999FECFD2BDC1BDA5
:10071800F89A00B50895F999FECFC1B5D2B52196DA
:10072800C1BDD2BD00BDF894FA9AF99A789408959B
:10073800F999FECFC1B5D2B52196C1BDD2BDF89AFF
:0407480000B508955B
:00000001FF
